{
  "contractName": "ArbToken_v2",
  "abi": [
    {
      "anonymous": false,
      "inputs": [
        {
          "indexed": true,
          "internalType": "address",
          "name": "oldAdmin",
          "type": "address"
        },
        {
          "indexed": true,
          "internalType": "address",
          "name": "newAdmin",
          "type": "address"
        },
        {
          "indexed": true,
          "internalType": "address",
          "name": "sender",
          "type": "address"
        }
      ],
      "name": "AdminChanged",
      "type": "event"
    },
    {
      "anonymous": false,
      "inputs": [
        {
          "indexed": true,
          "internalType": "address",
          "name": "owner",
          "type": "address"
        },
        {
          "indexed": true,
          "internalType": "address",
          "name": "spender",
          "type": "address"
        },
        {
          "indexed": false,
          "internalType": "uint256",
          "name": "value",
          "type": "uint256"
        }
      ],
      "name": "Approval",
      "type": "event"
    },
    {
      "anonymous": false,
      "inputs": [
        {
          "indexed": true,
          "internalType": "address",
          "name": "burnee",
          "type": "address"
        },
        {
          "indexed": false,
          "internalType": "uint256",
          "name": "amount",
          "type": "uint256"
        },
        {
          "indexed": true,
          "internalType": "address",
          "name": "sender",
          "type": "address"
        }
      ],
      "name": "Burn",
      "type": "event"
    },
    {
      "anonymous": false,
      "inputs": [
        {
          "indexed": true,
          "internalType": "address",
          "name": "mintee",
          "type": "address"
        },
        {
          "indexed": false,
          "internalType": "uint256",
          "name": "amount",
          "type": "uint256"
        },
        {
          "indexed": true,
          "internalType": "address",
          "name": "sender",
          "type": "address"
        }
      ],
      "name": "Mint",
      "type": "event"
    },
    {
      "anonymous": false,
      "inputs": [
        {
          "indexed": true,
          "internalType": "address",
          "name": "oldOwner",
          "type": "address"
        },
        {
          "indexed": true,
          "internalType": "address",
          "name": "newOwner",
          "type": "address"
        },
        {
          "indexed": true,
          "internalType": "address",
          "name": "sender",
          "type": "address"
        }
      ],
      "name": "OwnerChanged",
      "type": "event"
    },
    {
      "anonymous": false,
      "inputs": [
        {
          "indexed": false,
          "internalType": "bool",
          "name": "status",
          "type": "bool"
        },
        {
          "indexed": true,
          "internalType": "address",
          "name": "sender",
          "type": "address"
        }
      ],
      "name": "Pause",
      "type": "event"
    },
    {
      "anonymous": false,
      "inputs": [
        {
          "indexed": true,
          "internalType": "address",
          "name": "oldPauser",
          "type": "address"
        },
        {
          "indexed": true,
          "internalType": "address",
          "name": "newPauser",
          "type": "address"
        },
        {
          "indexed": true,
          "internalType": "address",
          "name": "sender",
          "type": "address"
        }
      ],
      "name": "PauserChanged",
      "type": "event"
    },
    {
      "anonymous": false,
      "inputs": [
        {
          "indexed": true,
          "internalType": "address",
          "name": "oldProhibiter",
          "type": "address"
        },
        {
          "indexed": true,
          "internalType": "address",
          "name": "newProhibiter",
          "type": "address"
        },
        {
          "indexed": true,
          "internalType": "address",
          "name": "sender",
          "type": "address"
        }
      ],
      "name": "ProhibiterChanged",
      "type": "event"
    },
    {
      "anonymous": false,
      "inputs": [
        {
          "indexed": true,
          "internalType": "address",
          "name": "prohibited",
          "type": "address"
        },
        {
          "indexed": false,
          "internalType": "bool",
          "name": "status",
          "type": "bool"
        },
        {
          "indexed": true,
          "internalType": "address",
          "name": "sender",
          "type": "address"
        }
      ],
      "name": "Prohibition",
      "type": "event"
    },
    {
      "anonymous": false,
      "inputs": [
        {
          "indexed": true,
          "internalType": "contract IERC20",
          "name": "tokenAddr",
          "type": "address"
        },
        {
          "indexed": true,
          "internalType": "address",
          "name": "toAddr",
          "type": "address"
        },
        {
          "indexed": false,
          "internalType": "uint256",
          "name": "amount",
          "type": "uint256"
        }
      ],
      "name": "Rescue",
      "type": "event"
    },
    {
      "anonymous": false,
      "inputs": [
        {
          "indexed": true,
          "internalType": "address",
          "name": "oldRescuer",
          "type": "address"
        },
        {
          "indexed": true,
          "internalType": "address",
          "name": "newRescuer",
          "type": "address"
        },
        {
          "indexed": true,
          "internalType": "address",
          "name": "sender",
          "type": "address"
        }
      ],
      "name": "RescuerChanged",
      "type": "event"
    },
    {
      "anonymous": false,
      "inputs": [
        {
          "indexed": true,
          "internalType": "address",
          "name": "from",
          "type": "address"
        },
        {
          "indexed": true,
          "internalType": "address",
          "name": "to",
          "type": "address"
        },
        {
          "indexed": false,
          "internalType": "uint256",
          "name": "value",
          "type": "uint256"
        }
      ],
      "name": "Transfer",
      "type": "event"
    },
    {
      "anonymous": false,
      "inputs": [
        {
          "indexed": true,
          "internalType": "string",
          "name": "_newName",
          "type": "string"
        },
        {
          "indexed": true,
          "internalType": "string",
          "name": "_newSymbol",
          "type": "string"
        }
      ],
      "name": "UpdateMetadata",
      "type": "event"
    },
    {
      "anonymous": false,
      "inputs": [
        {
          "indexed": true,
          "internalType": "address",
          "name": "addr",
          "type": "address"
        },
        {
          "indexed": false,
          "internalType": "uint256",
          "name": "amount",
          "type": "uint256"
        }
      ],
      "name": "Wipe",
      "type": "event"
    },
    {
      "anonymous": false,
      "inputs": [
        {
          "indexed": true,
          "internalType": "address",
          "name": "oldWiper",
          "type": "address"
        },
        {
          "indexed": true,
          "internalType": "address",
          "name": "newWiper",
          "type": "address"
        },
        {
          "indexed": true,
          "internalType": "address",
          "name": "sender",
          "type": "address"
        }
      ],
      "name": "WiperChanged",
      "type": "event"
    },
    {
      "constant": true,
      "inputs": [],
      "name": "PERMIT_TYPEHASH",
      "outputs": [
        {
          "internalType": "bytes32",
          "name": "",
          "type": "bytes32"
        }
      ],
      "payable": false,
      "stateMutability": "view",
      "type": "function"
    },
    {
      "constant": true,
      "inputs": [],
      "name": "admin",
      "outputs": [
        {
          "internalType": "address",
          "name": "",
          "type": "address"
        }
      ],
      "payable": false,
      "stateMutability": "view",
      "type": "function"
    },
    {
      "constant": true,
      "inputs": [
        {
          "internalType": "address",
          "name": "owner",
          "type": "address"
        },
        {
          "internalType": "address",
          "name": "spender",
          "type": "address"
        }
      ],
      "name": "allowance",
      "outputs": [
        {
          "internalType": "uint256",
          "name": "",
          "type": "uint256"
        }
      ],
      "payable": false,
      "stateMutability": "view",
      "type": "function"
    },
    {
      "constant": false,
      "inputs": [
        {
          "internalType": "address",
          "name": "spender",
          "type": "address"
        },
        {
          "internalType": "uint256",
          "name": "value",
          "type": "uint256"
        }
      ],
      "name": "approve",
      "outputs": [
        {
          "internalType": "bool",
          "name": "",
          "type": "bool"
        }
      ],
      "payable": false,
      "stateMutability": "nonpayable",
      "type": "function"
    },
    {
      "constant": true,
      "inputs": [
        {
          "internalType": "address",
          "name": "account",
          "type": "address"
        }
      ],
      "name": "balanceOf",
      "outputs": [
        {
          "internalType": "uint256",
          "name": "",
          "type": "uint256"
        }
      ],
      "payable": false,
      "stateMutability": "view",
      "type": "function"
    },
    {
      "constant": false,
      "inputs": [
        {
          "internalType": "address",
          "name": "account",
          "type": "address"
        },
        {
          "internalType": "uint256",
          "name": "amount",
          "type": "uint256"
        }
      ],
      "name": "bridgeBurn",
      "outputs": [],
      "payable": false,
      "stateMutability": "nonpayable",
      "type": "function"
    },
    {
      "constant": false,
      "inputs": [
        {
          "internalType": "address",
          "name": "account",
          "type": "address"
        },
        {
          "internalType": "uint256",
          "name": "amount",
          "type": "uint256"
        }
      ],
      "name": "bridgeMint",
      "outputs": [],
      "payable": false,
      "stateMutability": "nonpayable",
      "type": "function"
    },
    {
      "constant": false,
      "inputs": [
        {
          "internalType": "address",
          "name": "_account",
          "type": "address"
        }
      ],
      "name": "changeAdmin",
      "outputs": [],
      "payable": false,
      "stateMutability": "nonpayable",
      "type": "function"
    },
    {
      "constant": false,
      "inputs": [
        {
          "internalType": "address",
          "name": "_account",
          "type": "address"
        }
      ],
      "name": "changeOwner",
      "outputs": [],
      "payable": false,
      "stateMutability": "nonpayable",
      "type": "function"
    },
    {
      "constant": false,
      "inputs": [
        {
          "internalType": "address",
          "name": "_account",
          "type": "address"
        }
      ],
      "name": "changePauser",
      "outputs": [],
      "payable": false,
      "stateMutability": "nonpayable",
      "type": "function"
    },
    {
      "constant": false,
      "inputs": [
        {
          "internalType": "address",
          "name": "_account",
          "type": "address"
        }
      ],
      "name": "changeProhibiter",
      "outputs": [],
      "payable": false,
      "stateMutability": "nonpayable",
      "type": "function"
    },
    {
      "constant": false,
      "inputs": [
        {
          "internalType": "address",
          "name": "_account",
          "type": "address"
        }
      ],
      "name": "changeRescuer",
      "outputs": [],
      "payable": false,
      "stateMutability": "nonpayable",
      "type": "function"
    },
    {
      "constant": false,
      "inputs": [
        {
          "internalType": "address",
          "name": "_account",
          "type": "address"
        }
      ],
      "name": "changeWiper",
      "outputs": [],
      "payable": false,
      "stateMutability": "nonpayable",
      "type": "function"
    },
    {
      "constant": true,
      "inputs": [],
      "name": "decimals",
      "outputs": [
        {
          "internalType": "uint8",
          "name": "",
          "type": "uint8"
        }
      ],
      "payable": false,
      "stateMutability": "view",
      "type": "function"
    },
    {
      "constant": false,
      "inputs": [
        {
          "internalType": "address",
          "name": "spender",
          "type": "address"
        },
        {
          "internalType": "uint256",
          "name": "subtractedValue",
          "type": "uint256"
        }
      ],
      "name": "decreaseAllowance",
      "outputs": [
        {
          "internalType": "bool",
          "name": "",
          "type": "bool"
        }
      ],
      "payable": false,
      "stateMutability": "nonpayable",
      "type": "function"
    },
    {
      "constant": true,
      "inputs": [],
      "name": "deploymentChainId",
      "outputs": [
        {
          "internalType": "uint256",
          "name": "",
          "type": "uint256"
        }
      ],
      "payable": false,
      "stateMutability": "view",
      "type": "function"
    },
    {
      "constant": false,
      "inputs": [
        {
          "internalType": "address",
          "name": "spender",
          "type": "address"
        },
        {
          "internalType": "uint256",
          "name": "addedValue",
          "type": "uint256"
        }
      ],
      "name": "increaseAllowance",
      "outputs": [
        {
          "internalType": "bool",
          "name": "",
          "type": "bool"
        }
      ],
      "payable": false,
      "stateMutability": "nonpayable",
      "type": "function"
    },
    {
      "constant": false,
      "inputs": [
        {
          "internalType": "string",
          "name": "_name",
          "type": "string"
        },
        {
          "internalType": "string",
          "name": "_symbol",
          "type": "string"
        },
        {
          "internalType": "uint8",
          "name": "_decimals",
          "type": "uint8"
        },
        {
          "internalType": "address",
          "name": "_owner",
          "type": "address"
        },
        {
          "internalType": "address",
          "name": "_admin",
          "type": "address"
        },
        {
          "internalType": "address",
          "name": "_prohibiter",
          "type": "address"
        },
        {
          "internalType": "address",
          "name": "_pauser",
          "type": "address"
        },
        {
          "internalType": "address",
          "name": "_wiper",
          "type": "address"
        },
        {
          "internalType": "address",
          "name": "_rescuer",
          "type": "address"
        },
        {
          "internalType": "address",
          "name": "_l1Address",
          "type": "address"
        },
        {
          "internalType": "address",
          "name": "_l2Gateway",
          "type": "address"
        }
      ],
      "name": "initialize",
      "outputs": [],
      "payable": false,
      "stateMutability": "nonpayable",
      "type": "function"
    },
    {
      "constant": true,
      "inputs": [],
      "name": "l1Address",
      "outputs": [
        {
          "internalType": "address",
          "name": "",
          "type": "address"
        }
      ],
      "payable": false,
      "stateMutability": "view",
      "type": "function"
    },
    {
      "constant": true,
      "inputs": [],
      "name": "l2Gateway",
      "outputs": [
        {
          "internalType": "address",
          "name": "",
          "type": "address"
        }
      ],
      "payable": false,
      "stateMutability": "view",
      "type": "function"
    },
    {
      "constant": true,
      "inputs": [],
      "name": "name",
      "outputs": [
        {
          "internalType": "string",
          "name": "",
          "type": "string"
        }
      ],
      "payable": false,
      "stateMutability": "view",
      "type": "function"
    },
    {
      "constant": true,
      "inputs": [
        {
          "internalType": "address",
          "name": "",
          "type": "address"
        }
      ],
      "name": "nonces",
      "outputs": [
        {
          "internalType": "uint256",
          "name": "",
          "type": "uint256"
        }
      ],
      "payable": false,
      "stateMutability": "view",
      "type": "function"
    },
    {
      "constant": true,
      "inputs": [],
      "name": "owner",
      "outputs": [
        {
          "internalType": "address",
          "name": "",
          "type": "address"
        }
      ],
      "payable": false,
      "stateMutability": "view",
      "type": "function"
    },
    {
      "constant": false,
      "inputs": [],
      "name": "pause",
      "outputs": [],
      "payable": false,
      "stateMutability": "nonpayable",
      "type": "function"
    },
    {
      "constant": true,
      "inputs": [],
      "name": "paused",
      "outputs": [
        {
          "internalType": "bool",
          "name": "",
          "type": "bool"
        }
      ],
      "payable": false,
      "stateMutability": "view",
      "type": "function"
    },
    {
      "constant": true,
      "inputs": [],
      "name": "pauser",
      "outputs": [
        {
          "internalType": "address",
          "name": "",
          "type": "address"
        }
      ],
      "payable": false,
      "stateMutability": "view",
      "type": "function"
    },
    {
      "constant": false,
      "inputs": [
        {
          "internalType": "address",
          "name": "_account",
          "type": "address"
        }
      ],
      "name": "prohibit",
      "outputs": [],
      "payable": false,
      "stateMutability": "nonpayable",
      "type": "function"
    },
    {
      "constant": true,
      "inputs": [
        {
          "internalType": "address",
          "name": "",
          "type": "address"
        }
      ],
      "name": "prohibiteds",
      "outputs": [
        {
          "internalType": "bool",
          "name": "",
          "type": "bool"
        }
      ],
      "payable": false,
      "stateMutability": "view",
      "type": "function"
    },
    {
      "constant": true,
      "inputs": [],
      "name": "prohibiter",
      "outputs": [
        {
          "internalType": "address",
          "name": "",
          "type": "address"
        }
      ],
      "payable": false,
      "stateMutability": "view",
      "type": "function"
    },
    {
      "constant": false,
      "inputs": [
        {
          "internalType": "contract IERC20",
          "name": "_tokenContract",
          "type": "address"
        },
        {
          "internalType": "address",
          "name": "_to",
          "type": "address"
        },
        {
          "internalType": "uint256",
          "name": "_amount",
          "type": "uint256"
        }
      ],
      "name": "rescue",
      "outputs": [],
      "payable": false,
      "stateMutability": "nonpayable",
      "type": "function"
    },
    {
      "constant": true,
      "inputs": [],
      "name": "rescuer",
      "outputs": [
        {
          "internalType": "address",
          "name": "",
          "type": "address"
        }
      ],
      "payable": false,
      "stateMutability": "view",
      "type": "function"
    },
    {
      "constant": true,
      "inputs": [],
      "name": "symbol",
      "outputs": [
        {
          "internalType": "string",
          "name": "",
          "type": "string"
        }
      ],
      "payable": false,
      "stateMutability": "view",
      "type": "function"
    },
    {
      "constant": true,
      "inputs": [],
      "name": "totalSupply",
      "outputs": [
        {
          "internalType": "uint256",
          "name": "",
          "type": "uint256"
        }
      ],
      "payable": false,
      "stateMutability": "view",
      "type": "function"
    },
    {
      "constant": false,
      "inputs": [
        {
          "internalType": "address",
          "name": "_recipient",
          "type": "address"
        },
        {
          "internalType": "uint256",
          "name": "_amount",
          "type": "uint256"
        }
      ],
      "name": "transfer",
      "outputs": [
        {
          "internalType": "bool",
          "name": "",
          "type": "bool"
        }
      ],
      "payable": false,
      "stateMutability": "nonpayable",
      "type": "function"
    },
    {
      "constant": false,
      "inputs": [
        {
          "internalType": "address",
          "name": "_sender",
          "type": "address"
        },
        {
          "internalType": "address",
          "name": "_recipient",
          "type": "address"
        },
        {
          "internalType": "uint256",
          "name": "_amount",
          "type": "uint256"
        }
      ],
      "name": "transferFrom",
      "outputs": [
        {
          "internalType": "bool",
          "name": "",
          "type": "bool"
        }
      ],
      "payable": false,
      "stateMutability": "nonpayable",
      "type": "function"
    },
    {
      "constant": false,
      "inputs": [],
      "name": "unpause",
      "outputs": [],
      "payable": false,
      "stateMutability": "nonpayable",
      "type": "function"
    },
    {
      "constant": false,
      "inputs": [
        {
          "internalType": "address",
          "name": "_account",
          "type": "address"
        }
      ],
      "name": "unprohibit",
      "outputs": [],
      "payable": false,
      "stateMutability": "nonpayable",
      "type": "function"
    },
    {
      "constant": true,
      "inputs": [],
      "name": "version",
      "outputs": [
        {
          "internalType": "string",
          "name": "",
          "type": "string"
        }
      ],
      "payable": false,
      "stateMutability": "view",
      "type": "function"
    },
    {
      "constant": false,
      "inputs": [
        {
          "internalType": "address",
          "name": "_account",
          "type": "address"
        }
      ],
      "name": "wipe",
      "outputs": [],
      "payable": false,
      "stateMutability": "nonpayable",
      "type": "function"
    },
    {
      "constant": true,
      "inputs": [],
      "name": "wiper",
      "outputs": [
        {
          "internalType": "address",
          "name": "",
          "type": "address"
        }
      ],
      "payable": false,
      "stateMutability": "view",
      "type": "function"
    },
    {
      "constant": false,
      "inputs": [
        {
          "internalType": "string",
          "name": "_newName",
          "type": "string"
        },
        {
          "internalType": "string",
          "name": "_newSymbol",
          "type": "string"
        }
      ],
      "name": "initializeV2",
      "outputs": [],
      "payable": false,
      "stateMutability": "nonpayable",
      "type": "function"
    },
    {
      "constant": false,
      "inputs": [
        {
          "internalType": "string",
          "name": "_newName",
          "type": "string"
        },
        {
          "internalType": "string",
          "name": "_newSymbol",
          "type": "string"
        }
      ],
      "name": "updateMetadata",
      "outputs": [],
      "payable": false,
      "stateMutability": "nonpayable",
      "type": "function"
    },
    {
      "constant": true,
      "inputs": [],
      "name": "DOMAIN_SEPARATOR",
      "outputs": [
        {
          "internalType": "bytes32",
          "name": "",
          "type": "bytes32"
        }
      ],
      "payable": false,
      "stateMutability": "view",
      "type": "function"
    },
    {
      "constant": false,
      "inputs": [
        {
          "internalType": "address",
          "name": "owner",
          "type": "address"
        },
        {
          "internalType": "address",
          "name": "spender",
          "type": "address"
        },
        {
          "internalType": "uint256",
          "name": "value",
          "type": "uint256"
        },
        {
          "internalType": "uint256",
          "name": "deadline",
          "type": "uint256"
        },
        {
          "internalType": "uint8",
          "name": "v",
          "type": "uint8"
        },
        {
          "internalType": "bytes32",
          "name": "r",
          "type": "bytes32"
        },
        {
          "internalType": "bytes32",
          "name": "s",
          "type": "bytes32"
        }
      ],
      "name": "permit",
      "outputs": [],
      "payable": false,
      "stateMutability": "nonpayable",
      "type": "function"
    }
  ],
  "bytecode": "0x6080604052603380546001600160a81b0319169055603480546001600160a01b03199081169091556035805482169055603a805482169055603b805482169055603c805490911690556044805460ff1916905534801561005e57600080fd5b506135938061006e6000396000f3fe608060405234801561001057600080fd5b50600436106102745760003560e01c80637ecebe0011610151578063a9059cbb116100c3578063cffdd46c11610087578063cffdd46c14610aa5578063d505accf14610acb578063dcb413c814610b1c578063dd62ed3e14610b24578063dd75049b14610b52578063f851a44014610b5a57610274565b8063a9059cbb1461091a578063babfad5014610946578063c2eeeebd14610a6f578063c4e1ccf214610a77578063cd0d009614610a9d57610274565b80638fa74a0e116101155780638fa74a0e1461088a57806395d89b4114610892578063988749d11461089a5780639fd0506d146108c0578063a457c2d7146108c8578063a6f9dae1146108f457610274565b80637ecebe00146108025780638456cb59146108285780638c2a993e146108305780638da5cb5b1461085c5780638f2839701461086457610274565b80633644e515116101ea57806356ce0e6c116101ae57806356ce0e6c14610633578063597636281461075c5780635c975abb14610782578063664dc7241461078a57806370a08231146107b057806374f4f547146107d657610274565b80633644e515146105cb57806338a63183146105d357806339509351146105f75780633f4ba83a1461062357806354fd4d501461062b57610274565b806323b872dd1161023c57806323b872dd146104fd5780632ad3ed6d146105335780632cd271e7146105595780632fee80d01461057f57806330adf81f146105a5578063313ce567146105ad57610274565b806306fdde0314610279578063095ea7b3146102f657806318160ddd14610336578063189179561461035057806320ff430b146104c7575b600080fd5b610281610b62565b6040805160208082528351818301528351919283929083019185019080838360005b838110156102bb5781810151838201526020016102a3565b50505050905090810190601f1680156102e85780820380516001836020036101000a031916815260200191505b509250505060405180910390f35b6103226004803603604081101561030c57600080fd5b506001600160a01b038135169060200135610bf0565b604080519115158252519081900360200190f35b61033e610c06565b60408051918252519081900360200190f35b6104c5600480360361016081101561036757600080fd5b810190602081018135600160201b81111561038157600080fd5b82018360208201111561039357600080fd5b803590602001918460018302840111600160201b831117156103b457600080fd5b91908080601f0160208091040260200160405190810160405280939291908181526020018383808284376000920191909152509295949360208101935035915050600160201b81111561040657600080fd5b82018360208201111561041857600080fd5b803590602001918460018302840111600160201b8311171561043957600080fd5b91908080601f0160208091040260200160405190810160405280939291908181526020018383808284376000920191909152509295505050813560ff1692505060208101356001600160a01b039081169160408101358216916060820135811691608081013582169160a082013581169160c081013582169160e0820135811691610100013516610c0d565b005b6104c5600480360360608110156104dd57600080fd5b506001600160a01b03813581169160208101359091169060400135611126565b6103226004803603606081101561051357600080fd5b506001600160a01b0381358116916020810135909116906040013561123c565b6103226004803603602081101561054957600080fd5b50356001600160a01b031661139e565b6104c56004803603602081101561056f57600080fd5b50356001600160a01b03166113b3565b6104c56004803603602081101561059557600080fd5b50356001600160a01b03166114a2565b61033e6115de565b6105b56115f9565b6040805160ff9092168252519081900360200190f35b61033e611602565b6105db611614565b604080516001600160a01b039092168252519081900360200190f35b6103226004803603604081101561060d57600080fd5b506001600160a01b038135169060200135611623565b6104c5611664565b610281611773565b6104c56004803603604081101561064957600080fd5b810190602081018135600160201b81111561066357600080fd5b82018360208201111561067557600080fd5b803590602001918460018302840111600160201b8311171561069657600080fd5b91908080601f0160208091040260200160405190810160405280939291908181526020018383808284376000920191909152509295949360208101935035915050600160201b8111156106e857600080fd5b8201836020820111156106fa57600080fd5b803590602001918460018302840111600160201b8311171561071b57600080fd5b91908080601f016020809104026020016040519081016040528093929190818152602001838380828437600092019190915250929550611790945050505050565b6104c56004803603602081101561077257600080fd5b50356001600160a01b03166118e1565b610322611a1d565b6104c5600480360360208110156107a057600080fd5b50356001600160a01b0316611a2d565b61033e600480360360208110156107c657600080fd5b50356001600160a01b0316611bec565b6104c5600480360360408110156107ec57600080fd5b506001600160a01b038135169060200135611c07565b61033e6004803603602081101561081857600080fd5b50356001600160a01b0316611ca3565b6104c5611cb5565b6104c56004803603604081101561084657600080fd5b506001600160a01b038135169060200135611db8565b6105db611e54565b6104c56004803603602081101561087a57600080fd5b50356001600160a01b0316611e63565b6105db611f64565b610281611f73565b6104c5600480360360208110156108b057600080fd5b50356001600160a01b0316611fce565b6105db612144565b610322600480360360408110156108de57600080fd5b506001600160a01b038135169060200135612153565b6104c56004803603602081101561090a57600080fd5b50356001600160a01b031661218f565b6103226004803603604081101561093057600080fd5b506001600160a01b0381351690602001356122dd565b6104c56004803603604081101561095c57600080fd5b810190602081018135600160201b81111561097657600080fd5b82018360208201111561098857600080fd5b803590602001918460018302840111600160201b831117156109a957600080fd5b91908080601f0160208091040260200160405190810160405280939291908181526020018383808284376000920191909152509295949360208101935035915050600160201b8111156109fb57600080fd5b820183602082011115610a0d57600080fd5b803590602001918460018302840111600160201b83111715610a2e57600080fd5b91908080601f016020809104026020016040519081016040528093929190818152602001838380828437600092019190915250929550612435945050505050565b6105db6124d2565b6104c560048036036020811015610a8d57600080fd5b50356001600160a01b03166124e6565b61033e6126a2565b6104c560048036036020811015610abb57600080fd5b50356001600160a01b03166126a8565b6104c5600480360360e0811015610ae157600080fd5b506001600160a01b03813581169160208101359091169060408101359060608101359060ff6080820135169060a08101359060c001356127e4565b6105db6129ca565b61033e60048036036040811015610b3a57600080fd5b506001600160a01b03813581169160200135166129d9565b6105db612a04565b6105db612a13565b603d805460408051602060026001851615610100026000190190941693909304601f81018490048402820184019092528181529291830182828015610be85780601f10610bbd57610100808354040283529160200191610be8565b820191906000526020600020905b815481529060010190602001808311610bcb57829003601f168201915b505050505081565b6000610bfd338484612a22565b50600192915050565b6039545b90565b600054610100900460ff1680610c265750610c26612b0e565b80610c34575060005460ff16155b610c6f5760405162461bcd60e51b815260040180806020018281038252602e81526020018061347a602e913960400191505060405180910390fd5b600054610100900460ff16158015610c9a576000805460ff1961ff0019909116610100171660011790555b6001600160a01b038916610cf5576040805162461bcd60e51b815260206004820152601a60248201527f5f6f776e657220697320746865207a65726f2061646472657373000000000000604482015290519081900360640190fd5b6001600160a01b038816610d50576040805162461bcd60e51b815260206004820152601a60248201527f5f61646d696e20697320746865207a65726f2061646472657373000000000000604482015290519081900360640190fd5b6001600160a01b038716610dab576040805162461bcd60e51b815260206004820152601f60248201527f5f70726f6869626974657220697320746865207a65726f206164647265737300604482015290519081900360640190fd5b6001600160a01b038616610e06576040805162461bcd60e51b815260206004820152601b60248201527f5f70617573657220697320746865207a65726f20616464726573730000000000604482015290519081900360640190fd5b6001600160a01b038516610e61576040805162461bcd60e51b815260206004820152601a60248201527f5f776970657220697320746865207a65726f2061646472657373000000000000604482015290519081900360640190fd5b6001600160a01b038416610ebc576040805162461bcd60e51b815260206004820152601c60248201527f5f7265736375657220697320746865207a65726f206164647265737300000000604482015290519081900360640190fd5b6001600160a01b038316610f17576040805162461bcd60e51b815260206004820152601e60248201527f5f6c314164647265737320697320746865207a65726f20616464726573730000604482015290519081900360640190fd5b6001600160a01b038216610f72576040805162461bcd60e51b815260206004820152601e60248201527f5f6c324761746577617920697320746865207a65726f20616464726573730000604482015290519081900360640190fd5b8b51610f8590603d9060208f0190613278565b508a51610f9990603e9060208e0190613278565b5089603f60006101000a81548160ff021916908360ff16021790555088603c60006101000a8154816001600160a01b0302191690836001600160a01b0316021790555087603b60006101000a8154816001600160a01b0302191690836001600160a01b0316021790555086603560006101000a8154816001600160a01b0302191690836001600160a01b0316021790555085603360006101000a8154816001600160a01b0302191690836001600160a01b0316021790555084603a60006101000a8154816001600160a01b0302191690836001600160a01b0316021790555083603460006101000a8154816001600160a01b0302191690836001600160a01b0316021790555082603f60016101000a8154816001600160a01b0302191690836001600160a01b0316021790555081604060006101000a8154816001600160a01b0302191690836001600160a01b0316021790555060004690508060428190555061110281612b14565b604155508015611118576000805461ff00191690555b505050505050505050505050565b603354600160a01b900460ff1615611173576040805162461bcd60e51b815260206004820152601960248201526000805160206133b6833981519152604482015290519081900360640190fd5b6034546001600160a01b031633146111d2576040805162461bcd60e51b815260206004820152601d60248201527f7468652073656e646572206973206e6f74207468652072657363756572000000604482015290519081900360640190fd5b6111ec6001600160a01b038416838363ffffffff612c1216565b816001600160a01b0316836001600160a01b03167fe01920728668d89f092ef9cb92036bad90964bb622eec508d2c3ffe1d582efb2836040518082815260200191505060405180910390a3505050565b603354600090600160a01b900460ff161561128c576040805162461bcd60e51b815260206004820152601960248201526000805160206133b6833981519152604482015290519081900360640190fd5b6001600160a01b038416600090815260366020526040902054849060ff16156112ea576040805162461bcd60e51b815260206004820152601a6024820152600080516020613396833981519152604482015290519081900360640190fd5b6001600160a01b038416600090815260366020526040902054849060ff1615611348576040805162461bcd60e51b815260206004820152601a6024820152600080516020613396833981519152604482015290519081900360640190fd5b83806000106113885760405162461bcd60e51b81526004018080602001828103825260238152602001806134a86023913960400191505060405180910390fd5b611393878787612c69565b979650505050505050565b60366020526000908152604090205460ff1681565b603b546001600160a01b03163314611400576040805162461bcd60e51b815260206004820152601b6024820152600080516020613334833981519152604482015290519081900360640190fd5b806001600160a01b03811661144a576040805162461bcd60e51b81526020600482018190526024820152600080516020613376833981519152604482015290519081900360640190fd5b603380546001600160a01b038481166001600160a01b03198316179283905560405191811692339291169083907f8b1ee37fa817a066fe12c7c9bf109c0c9f8f03ef0a5cfe0c03d5196e8c2e465790600090a4505050565b603b546001600160a01b031633146114ef576040805162461bcd60e51b815260206004820152601b6024820152600080516020613334833981519152604482015290519081900360640190fd5b603354600160a01b900460ff161561153c576040805162461bcd60e51b815260206004820152601960248201526000805160206133b6833981519152604482015290519081900360640190fd5b806001600160a01b038116611586576040805162461bcd60e51b81526020600482018190526024820152600080516020613376833981519152604482015290519081900360640190fd5b603a80546001600160a01b038481166001600160a01b03198316179283905560405191811692339291169083907fd8d09cf07cabd1c0519931ab387ce1b6e580584a26fb2787b8ed7f446c34603f90600090a4505050565b6040518060526133d682396052019050604051809103902081565b603f5460ff1681565b60004661160e81612b14565b91505090565b6034546001600160a01b031681565b3360008181526038602090815260408083206001600160a01b03871684529091528120549091610bfd91859061165f908663ffffffff612cbb16565b612a22565b6033546001600160a01b031633146116c3576040805162461bcd60e51b815260206004820152601c60248201527f7468652073656e646572206973206e6f74207468652070617573657200000000604482015290519081900360640190fd5b603354600160a01b900460ff16611721576040805162461bcd60e51b815260206004820152601d60248201527f74686973206973206e6f7420612070617573656420636f6e7472616374000000604482015290519081900360640190fd5b6033805460ff60a01b19169081905560408051600160a01b90920460ff16151582525133917f5a9dfee0981174e5203ccf9368a8cabb254f9dea6ca43f96b4bbd10c69415d8a919081900360200190a2565b604051806040016040528060018152602001603160f81b81525081565b6034546001600160a01b031633146117ef576040805162461bcd60e51b815260206004820152601d60248201527f7468652073656e646572206973206e6f74207468652072657363756572000000604482015290519081900360640190fd5b6117f882612d1c565b61180181612d33565b806040518082805190602001908083835b602083106118315780518252601f199092019160209182019101611812565b51815160209384036101000a6000190180199092169116179052604051919093018190038120875190955087945090928392508401908083835b6020831061188a5780518252601f19909201916020918201910161186b565b5181516020939093036101000a60001901801990911692169190911790526040519201829003822093507fe145478978adad345687c302af874a7f977c8ac085c53a814e7ae9b7ec8905f792506000919050a35050565b603b546001600160a01b0316331461192e576040805162461bcd60e51b815260206004820152601b6024820152600080516020613334833981519152604482015290519081900360640190fd5b603354600160a01b900460ff161561197b576040805162461bcd60e51b815260206004820152601960248201526000805160206133b6833981519152604482015290519081900360640190fd5b806001600160a01b0381166119c5576040805162461bcd60e51b81526020600482018190526024820152600080516020613376833981519152604482015290519081900360640190fd5b603480546001600160a01b038481166001600160a01b03198316179283905560405191811692339291169083907f4e26e78832abd61f25bef51e06a1c7575a525edb4d215e56d6c4fbbe363cc03390600090a4505050565b603354600160a01b900460ff1681565b6035546001600160a01b03163314611a8c576040805162461bcd60e51b815260206004820181905260248201527f7468652073656e646572206973206e6f74207468652070726f68696269746572604482015290519081900360640190fd5b603354600160a01b900460ff1615611ad9576040805162461bcd60e51b815260206004820152601960248201526000805160206133b6833981519152604482015290519081900360640190fd5b806001600160a01b038116611b23576040805162461bcd60e51b81526020600482018190526024820152600080516020613376833981519152604482015290519081900360640190fd5b6001600160a01b038216600090815260366020526040902054829060ff16611b92576040805162461bcd60e51b815260206004820152601e60248201527f74686973206163636f756e74206973206e6f742070726f686962697465640000604482015290519081900360640190fd5b6001600160a01b0383166000818152603660209081526040808320805460ff191690558051928352513393927fab0ab2fa6ff81b10c5afab4726a665d4379f2d0acaaafbe4c4d737ade05a8e4692908290030190a3505050565b6001600160a01b031660009081526037602052604090205490565b6040546001600160a01b03163314611c55576040805162461bcd60e51b815260206004820152600c60248201526b4f4e4c595f4741544557415960a01b604482015290519081900360640190fd5b611c5f8282612d46565b60408051828152905133916001600160a01b038516917fdbdf9b8e4b75e75b162d151ec8fc7f0561cabab5fcccfa2600be62223e4300c49181900360200190a35050565b60436020526000908152604090205481565b6033546001600160a01b03163314611d14576040805162461bcd60e51b815260206004820152601c60248201527f7468652073656e646572206973206e6f74207468652070617573657200000000604482015290519081900360640190fd5b603354600160a01b900460ff1615611d61576040805162461bcd60e51b815260206004820152601960248201526000805160206133b6833981519152604482015290519081900360640190fd5b6033805460ff60a01b1916600160a01b90811791829055604080519190920460ff1615158152905133917f5a9dfee0981174e5203ccf9368a8cabb254f9dea6ca43f96b4bbd10c69415d8a919081900360200190a2565b6040546001600160a01b03163314611e06576040805162461bcd60e51b815260206004820152600c60248201526b4f4e4c595f4741544557415960a01b604482015290519081900360640190fd5b611e108282612e21565b60408051828152905133916001600160a01b038516917fbcad3d7d3dfccb90d49c6063bf70f828901fefc88937d90af74e58e6e55bc39d9181900360200190a35050565b603c546001600160a01b031681565b603c546001600160a01b03163314611ec2576040805162461bcd60e51b815260206004820152601b60248201527f7468652073656e646572206973206e6f7420746865206f776e65720000000000604482015290519081900360640190fd5b806001600160a01b038116611f0c576040805162461bcd60e51b81526020600482018190526024820152600080516020613376833981519152604482015290519081900360640190fd5b603b80546001600160a01b038481166001600160a01b03198316179283905560405191811692339291169083907f4eb572e99196bed0270fbd5b17a948e19c3f50a97838cb0d2a75a823ff8e6c5090600090a4505050565b6040546001600160a01b031681565b603e805460408051602060026001851615610100026000190190941693909304601f81018490048402820184019092528181529291830182828015610be85780601f10610bbd57610100808354040283529160200191610be8565b603354600160a01b900460ff161561201b576040805162461bcd60e51b815260206004820152601960248201526000805160206133b6833981519152604482015290519081900360640190fd5b603a546001600160a01b0316331461207a576040805162461bcd60e51b815260206004820152601b60248201527f7468652073656e646572206973206e6f74207468652077697065720000000000604482015290519081900360640190fd5b6001600160a01b038116600090815260366020526040902054819060ff166120e9576040805162461bcd60e51b815260206004820152601e60248201527f74686973206163636f756e74206973206e6f742070726f686962697465640000604482015290519081900360640190fd5b60006120f483611bec565b90506121008382612d46565b6040805182815290516001600160a01b038516917f2d2c7da251295f4d722a8ddaf337627952c957ce21b2757c852e47fe81b3a2af919081900360200190a2505050565b6033546001600160a01b031681565b3360008181526038602090815260408083206001600160a01b03871684529091528120549091610bfd91859061165f908663ffffffff612f1316565b603c546001600160a01b031633146121ee576040805162461bcd60e51b815260206004820152601b60248201527f7468652073656e646572206973206e6f7420746865206f776e65720000000000604482015290519081900360640190fd5b603354600160a01b900460ff161561223b576040805162461bcd60e51b815260206004820152601960248201526000805160206133b6833981519152604482015290519081900360640190fd5b806001600160a01b038116612285576040805162461bcd60e51b81526020600482018190526024820152600080516020613376833981519152604482015290519081900360640190fd5b603c80546001600160a01b038481166001600160a01b03198316179283905560405191811692339291169083907f381c0d11398486654573703c51ee8210ce9461764d133f9f0e53b6a53970533190600090a4505050565b603354600090600160a01b900460ff161561232d576040805162461bcd60e51b815260206004820152601960248201526000805160206133b6833981519152604482015290519081900360640190fd5b3360008181526036602052604090205460ff1615612380576040805162461bcd60e51b815260206004820152601a6024820152600080516020613396833981519152604482015290519081900360640190fd5b6001600160a01b038416600090815260366020526040902054849060ff16156123de576040805162461bcd60e51b815260206004820152601a6024820152600080516020613396833981519152604482015290519081900360640190fd5b838060001061241e5760405162461bcd60e51b81526004018080602001828103825260238152602001806134a86023913960400191505060405180910390fd5b612429338787612f70565b50600195945050505050565b60445460ff1615612482576040805162461bcd60e51b8152602060048201526012602482015271158c881a1859081a5b9a5d1a585b1a5e995960721b604482015290519081900360640190fd5b61248b82612d1c565b61249481612d33565b6044805460ff19166001179055604051815182919081906020840190808383602083106118315780518252601f199092019160209182019101611812565b603f5461010090046001600160a01b031681565b6035546001600160a01b03163314612545576040805162461bcd60e51b815260206004820181905260248201527f7468652073656e646572206973206e6f74207468652070726f68696269746572604482015290519081900360640190fd5b603354600160a01b900460ff1615612592576040805162461bcd60e51b815260206004820152601960248201526000805160206133b6833981519152604482015290519081900360640190fd5b806001600160a01b0381166125dc576040805162461bcd60e51b81526020600482018190526024820152600080516020613376833981519152604482015290519081900360640190fd5b6001600160a01b038216600090815260366020526040902054829060ff161561263a576040805162461bcd60e51b815260206004820152601a6024820152600080516020613396833981519152604482015290519081900360640190fd5b6001600160a01b038316600081815260366020908152604091829020805460ff191660011790819055825160ff919091161515815291513393927fab0ab2fa6ff81b10c5afab4726a665d4379f2d0acaaafbe4c4d737ade05a8e4692908290030190a3505050565b60425481565b603b546001600160a01b031633146126f5576040805162461bcd60e51b815260206004820152601b6024820152600080516020613334833981519152604482015290519081900360640190fd5b603354600160a01b900460ff1615612742576040805162461bcd60e51b815260206004820152601960248201526000805160206133b6833981519152604482015290519081900360640190fd5b806001600160a01b03811661278c576040805162461bcd60e51b81526020600482018190526024820152600080516020613376833981519152604482015290519081900360640190fd5b603580546001600160a01b038481166001600160a01b03198316179283905560405191811692339291169083907f85ae865187b1d7c0069f5fab638cbfcb8f3f9d23bc090e1084abc0dc42def0d290600090a4505050565b8342111561282a576040805162461bcd60e51b815260206004820152600e60248201526d1c195c9b5a5d08195e1c1a5c995960921b604482015290519081900360640190fd5b46600061283682612b14565b6040518060526133d68239604080519182900360520182206001600160a01b03808f166000818152604360209081529085902080546001810190915581870194909452858501829052918f166060860152608085018e905260a085019290925260c08085018d90528351808603909101815260e08501845280519082012061190160f01b6101008601526101028501969096526101228085019690965282518085039096018652610142909301909152835193909101929092209250501580159061297257506040805160008152602080820180845284905260ff8816828401526060820187905260808201869052915160019260a0808401939192601f1981019281900390910190855afa158015612953573d6000803e3d6000fd5b505050602060405103516001600160a01b0316896001600160a01b0316145b6129b4576040805162461bcd60e51b815260206004820152600e60248201526d1a5b9d985b1a59081c195c9b5a5d60921b604482015290519081900360640190fd5b6129bf898989612a22565b505050505050505050565b603a546001600160a01b031681565b6001600160a01b03918216600090815260386020908152604080832093909416825291909152205490565b6035546001600160a01b031681565b603b546001600160a01b031681565b6001600160a01b038316612a675760405162461bcd60e51b81526004018080602001828103825260248152602001806135116024913960400191505060405180910390fd5b6001600160a01b038216612aac5760405162461bcd60e51b81526004018080602001828103825260228152602001806133546022913960400191505060405180910390fd5b6001600160a01b03808416600081815260386020908152604080832094871680845294825291829020859055815185815291517f8c5be1e5ebec7d5bd14f71427d1e84f3dd0314c0f7b2291e5b200ac8c7c3b9259281900390910190a3505050565b303b1590565b600060405180806134286052913960520190506040518091039020603d6040518082805460018160011615610100020316600290048015612b8c5780601f10612b6a576101008083540402835291820191612b8c565b820191906000526020600020905b815481529060010190602001808311612b78575b505060408051918290038220828201825260018352603160f81b602093840152815180840196909652858201527fc89efdaa54c0f20c7adf612882df0950f5a951637e0307cdcb4c672f298b8bc66060860152608085018790523060a0808701919091528151808703909101815260c09095019052835193019290922092505050919050565b604080516001600160a01b038416602482015260448082018490528251808303909101815260649091019091526020810180516001600160e01b031663a9059cbb60e01b179052612c649084906130b4565b505050565b6000612c76848484612f70565b6001600160a01b038416600090815260386020908152604080832033808552925290912054612cb191869161165f908663ffffffff612f1316565b5060019392505050565b600082820183811015612d15576040805162461bcd60e51b815260206004820152601b60248201527f536166654d6174683a206164646974696f6e206f766572666c6f770000000000604482015290519081900360640190fd5b9392505050565b8051612d2f90603d906020840190613278565b5050565b8051612d2f90603e906020840190613278565b6001600160a01b038216612d8b5760405162461bcd60e51b81526004018080602001828103825260218152602001806134cb6021913960400191505060405180910390fd5b603954612d9e908263ffffffff612f1316565b6039556001600160a01b038216600090815260376020526040902054612dca908263ffffffff612f1316565b6001600160a01b0383166000818152603760209081526040808320949094558351858152935191937fddf252ad1be2c89b69c2b068fc378daa952ba7f163c4a11628f55a4df523b3ef929081900390910190a35050565b6001600160a01b038216612e7c576040805162461bcd60e51b815260206004820152601f60248201527f45524332303a206d696e7420746f20746865207a65726f206164647265737300604482015290519081900360640190fd5b603954612e8f908263ffffffff612cbb16565b6039556001600160a01b038216600090815260376020526040902054612ebb908263ffffffff612cbb16565b6001600160a01b03831660008181526037602090815260408083209490945583518581529351929391927fddf252ad1be2c89b69c2b068fc378daa952ba7f163c4a11628f55a4df523b3ef9281900390910190a35050565b600082821115612f6a576040805162461bcd60e51b815260206004820152601e60248201527f536166654d6174683a207375627472616374696f6e206f766572666c6f770000604482015290519081900360640190fd5b50900390565b6001600160a01b038316612fb55760405162461bcd60e51b81526004018080602001828103825260258152602001806134ec6025913960400191505060405180910390fd5b6001600160a01b038216612ffa5760405162461bcd60e51b81526004018080602001828103825260238152602001806133116023913960400191505060405180910390fd5b6001600160a01b038316600090815260376020526040902054613023908263ffffffff612f1316565b6001600160a01b038085166000908152603760205260408082209390935590841681522054613058908263ffffffff612cbb16565b6001600160a01b0380841660008181526037602090815260409182902094909455805185815290519193928716927fddf252ad1be2c89b69c2b068fc378daa952ba7f163c4a11628f55a4df523b3ef92918290030190a3505050565b6130c6826001600160a01b0316613272565b613117576040805162461bcd60e51b815260206004820152601f60248201527f5361666545524332303a2063616c6c20746f206e6f6e2d636f6e747261637400604482015290519081900360640190fd5b60006060836001600160a01b0316836040518082805190602001908083835b602083106131555780518252601f199092019160209182019101613136565b6001836020036101000a0380198251168184511680821785525050505050509050019150506000604051808303816000865af19150503d80600081146131b7576040519150601f19603f3d011682016040523d82523d6000602084013e6131bc565b606091505b509150915081613213576040805162461bcd60e51b815260206004820181905260248201527f5361666545524332303a206c6f772d6c6576656c2063616c6c206661696c6564604482015290519081900360640190fd5b80511561326c5780806020019051602081101561322f57600080fd5b505161326c5760405162461bcd60e51b815260040180806020018281038252602a815260200180613535602a913960400191505060405180910390fd5b50505050565b3b151590565b828054600181600116156101000203166002900490600052602060002090601f016020900481019282601f106132b957805160ff19168380011785556132e6565b828001600101855582156132e6579182015b828111156132e65782518255916020019190600101906132cb565b506132f29291506132f6565b5090565b610c0a91905b808211156132f257600081556001016132fc56fe45524332303a207472616e7366657220746f20746865207a65726f20616464726573737468652073656e646572206973206e6f74207468652061646d696e000000000045524332303a20617070726f766520746f20746865207a65726f206164647265737374686973206163636f756e7420697320746865207a65726f206164647265737374686973206163636f756e742069732070726f686962697465640000000000007468697320697320612070617573656420636f6e7472616374000000000000005065726d69742861646472657373206f776e65722c61646472657373207370656e6465722c75696e743235362076616c75652c75696e74323536206e6f6e63652c75696e7432353620646561646c696e6529454950373132446f6d61696e28737472696e67206e616d652c737472696e672076657273696f6e2c75696e7432353620636861696e49642c6164647265737320766572696679696e67436f6e747261637429436f6e747261637420696e7374616e63652068617320616c7265616479206265656e20696e697469616c697a65647468697320616d6f756e74206973206e6f742061206e61747572616c206e756d62657245524332303a206275726e2066726f6d20746865207a65726f206164647265737345524332303a207472616e736665722066726f6d20746865207a65726f206164647265737345524332303a20617070726f76652066726f6d20746865207a65726f20616464726573735361666545524332303a204552433230206f7065726174696f6e20646964206e6f742073756363656564a265627a7a72315820102a3ee092810ce95e80e7cf20f98d56218063f94c9b788bb59288e516d9d2e564736f6c634300050d0032",
  "source": "pragma solidity 0.5.13;\n\nimport \"./ArbToken_v1.sol\";\n\ncontract ArbToken_v2 is ArbToken_v1 {\n    bool private initializedV2 = false;\n    event UpdateMetadata(string indexed _newName, string indexed _newSymbol);\n\n    function initializeV2(string memory _newName, string memory _newSymbol)\n        public\n    {\n        require(!initializedV2, \"V2 had initialized\");\n        setName(_newName);\n        setSymbol(_newSymbol);\n        initializedV2 = true;\n        emit UpdateMetadata(_newName, _newSymbol);\n    }\n\n    function updateMetadata(string memory _newName, string memory _newSymbol)\n        public\n        onlyRescuer\n    {\n        setName(_newName);\n        setSymbol(_newSymbol);\n\n        emit UpdateMetadata(_newName, _newSymbol);\n    }\n\n    function setName(string memory _newName) internal {\n      name = _newName;\n    }\n\n    function setSymbol(string memory _newSymbol) internal {\n      symbol = _newSymbol;\n    }\n\n\n    function _calculateDomainSeparator(uint256 chainId) private view returns (bytes32) {\n        return keccak256(\n            abi.encode(\n            keccak256(\"EIP712Domain(string name,string version,uint256 chainId,address verifyingContract)\"),\n            keccak256(bytes(name)),\n            keccak256(bytes(version)),\n            chainId,\n            address(this)\n            )\n        );\n    }\n\n    function DOMAIN_SEPARATOR() external view returns (bytes32) {\n        uint256 id;\n        assembly {id := chainid()}\n        return _calculateDomainSeparator(id);\n    }\n\n    function permit(address owner, address spender, uint256 value, uint256 deadline, uint8 v, bytes32 r, bytes32 s) external {\n        require(block.timestamp <= deadline, \"permit expired\");\n\n        uint256 id;\n        assembly {id := chainid()}\n\n        bytes32 digest =\n            keccak256(abi.encodePacked(\n                \"\\x19\\x01\",\n                _calculateDomainSeparator(id),\n                keccak256(abi.encode(\n                PERMIT_TYPEHASH,\n                owner,\n                spender,\n                value,\n                nonces[owner]++,\n                deadline\n                ))\n            ));\n\n        require(owner != address(0) && owner == ecrecover(digest, v, r, s), \"invalid permit\");\n\n        _approve(owner, spender, value);\n    }\n}",
  "sourcePath": "/Users/usr0102794/gyen2022/arbitrum-l2/contracts/contracts/ArbToken_v2.sol",
  "compiler": {
    "name": "solc",
    "version": "0.5.13+commit.5b0b510c.Emscripten.clang"
  },
  "schemaVersion": "3.0.16",
  "updatedAt": "2023-01-16T07:37:09.011Z",
  "devdoc": {
    "methods": {
      "allowance(address,address)": {
        "details": "See `IERC20.allowance`."
      },
      "approve(address,uint256)": {
        "details": "See `IERC20.approve`.     * Requirements:     * - `spender` cannot be the zero address."
      },
      "balanceOf(address)": {
        "details": "See `IERC20.balanceOf`."
      },
      "bridgeBurn(address,uint256)": {
        "details": "only the token bridge can call this",
        "params": {
          "account": "owner of tokens",
          "amount": "amount of tokens burnt"
        }
      },
      "bridgeMint(address,uint256)": {
        "params": {
          "account": "recipient of tokens",
          "amount": "amount of tokens minted"
        }
      },
      "changeAdmin(address)": {
        "details": "\"whenNotPaused\" modifier should not be used here"
      },
      "changePauser(address)": {
        "details": "\"whenNotPaused\" modifier should not be used here"
      },
      "decreaseAllowance(address,uint256)": {
        "details": "Atomically decreases the allowance granted to `spender` by the caller.     * This is an alternative to `approve` that can be used as a mitigation for problems described in `IERC20.approve`.     * Emits an `Approval` event indicating the updated allowance.     * Requirements:     * - `spender` cannot be the zero address. - `spender` must have allowance for the caller of at least `subtractedValue`."
      },
      "increaseAllowance(address,uint256)": {
        "details": "Atomically increases the allowance granted to `spender` by the caller.     * This is an alternative to `approve` that can be used as a mitigation for problems described in `IERC20.approve`.     * Emits an `Approval` event indicating the updated allowance.     * Requirements:     * - `spender` cannot be the zero address."
      },
      "totalSupply()": {
        "details": "See `IERC20.totalSupply`."
      }
    }
  },
  "userdoc": {
    "methods": {
      "bridgeBurn(address,uint256)": {
        "notice": "Burn tokens on L2."
      },
      "bridgeMint(address,uint256)": {
        "notice": "Mint tokens on L2. Callable path is L1Gateway depositToken (which handles L1 escrow), which triggers L2Gateway, which calls this"
      },
      "changeAdmin(address)": {
        "notice": "Change Admin"
      },
      "changePauser(address)": {
        "notice": "Change Pauser"
      }
    }
  }
}